:100000000C9472000C9493000C9493000C94930045
:100010000C9493000C9493000C9493000C94930014
:100020000C9493000C9493000C9493000C94930004
:100030000C9493000C9493000C9493000C949300F4
:100040000C9493000C9493000C9493000C949300E4
:100050000C9493000C9493000C9493000C944F0117
:100060000C9493000C9493000C9493000C949300C4
:100070000C9493000C9493000C9493000C949300B4
:100080000C9493000C9493000C9493000C949300A4
:100090000C9493000C9493000C9493000C94930094
:1000A0000C9493000C9493000C9493000C94930084
:1000B0000C9493000C9493000C9493000C94930074
:1000C0000C9493000C9493000C9493000C94930064
:1000D0000C9493000C9493000C9493000C94930054
:1000E0000C94930011241FBECFEFD1E2DEBFCDBF31
:1000F00000E00CBF12E0A0E0B2E0E2E0F4E000E0DB
:100100000BBF02C007900D92A830B107D9F719E0D4
:10011000A8E0B2E001C01D92A83EB107E1F70E943D
:1001200095000C94FF010C940000DF93CF93CDB7A2
:10013000DEB72D970FB6F894DEBF0FBECDBF0E947D
:10014000C800CE0101969A878987E0E0F2E0FC873B
:10015000EB87F8E0FD87EB85FC8500808B859C852F
:1001600001969C878B87E985FA85008289859A8527
:1001700001969A8789879D8591509D87ED85EE230D
:1001800051F7CE01019664E070E00E94F600FFCFC7
:10019000DF93CF93CDB7DEB7E4E4F0E01082A5E4BF
:1001A000B0E0E5E4F0E0808183608C93AEE6B0E0FF
:1001B000EEE6F0E0808181608C93A4E2B0E0E4E2BE
:1001C000F0E0808181608C93A5E2B0E0E5E2F0E0B0
:1001D00080818E7F8C93A4E2B0E0E4E2F0E0808145
:1001E00082608C937894CF91DF910895DF93CF93C1
:1001F00000D000D0CDB7DEB79C838B837E836D8328
:100200008091160290911702009709F03FC01A8260
:1002100019821A8219821BC049815A8189819A8167
:100220009C01220F331F8B819C81FC01E20FF31F85
:1002300020813181CA01880F991FFC01E85EFD4FC2
:100240003183208389819A8101969A8389832981C8
:100250003A818D819E8128173907F4F28D819E8124
:10026000909309028093080210920B0210920A02E6
:1002700010921302109212021092150210921402A0
:1002800081E090E0909317028093160226960FB6B5
:10029000F894DEBF0FBECDBFCF91DF9108951F92BE
:1002A0000F920FB60F9200905B000F9211242F93C4
:1002B0003F938F939F93AF93BF93EF93FF93DF93FE
:1002C000CF93CDB7DEB7809116029091170281309F
:1002D000910509F07BC0809112029091130223E0F6
:1002E000803D9207C0F1A5E2B0E0E5E2F0E0908148
:1002F00082E089278C9320910A0230910B02809131
:10030000080290910902281739070CF580910A021A
:1003100090910B02880F991FFC01E85EFD4F8081D0
:10032000918190930D0280930C0280910A0290912A
:100330000B02019690930B0280930A021092110215
:1003400010921002109213021092120204C0109226
:1003500017021092160280910C0290910D029C01DE
:10036000809114029091150282179307E0F080911A
:1003700010029091110282309105ACF4A5E2B0E038
:10038000E5E2F0E0908181E089278C9310921502DC
:100390001092140280911002909111020196909394
:1003A0001102809310028091120290911302019623
:1003B000909313028093120280911402909115027F
:1003C0000196909315028093140207C0A5E2B0E055
:1003D000E5E2F0E080818E7F8C93CF91DF91FF91F9
:1003E000EF91BF91AF919F918F913F912F910F907E
:1003F00000925B000F900FBE0F901F901895F8941D
:02040000FFCF2C
:08040200F4016400F4010A009A
:00000001FF
